{
  "contractName": "Projekat",
  "abi": [
    {
      "inputs": [],
      "stateMutability": "nonpayable",
      "type": "constructor"
    },
    {
      "anonymous": false,
      "inputs": [
        {
          "components": [
            {
              "internalType": "string",
              "name": "name",
              "type": "string"
            },
            {
              "internalType": "string",
              "name": "lastName",
              "type": "string"
            },
            {
              "internalType": "string",
              "name": "email",
              "type": "string"
            },
            {
              "internalType": "string",
              "name": "shippingAddres",
              "type": "string"
            },
            {
              "internalType": "address",
              "name": "buyer",
              "type": "address"
            }
          ],
          "indexed": false,
          "internalType": "struct Projekat.Data",
          "name": "data",
          "type": "tuple"
        }
      ],
      "name": "Ordered",
      "type": "event"
    },
    {
      "inputs": [],
      "name": "getReserve",
      "outputs": [
        {
          "internalType": "uint256",
          "name": "",
          "type": "uint256"
        }
      ],
      "stateMutability": "view",
      "type": "function",
      "constant": true
    },
    {
      "inputs": [],
      "name": "getOwner",
      "outputs": [
        {
          "internalType": "address",
          "name": "",
          "type": "address"
        }
      ],
      "stateMutability": "view",
      "type": "function",
      "constant": true
    },
    {
      "inputs": [
        {
          "internalType": "string",
          "name": "_name",
          "type": "string"
        },
        {
          "internalType": "string",
          "name": "_lastName",
          "type": "string"
        },
        {
          "internalType": "string",
          "name": "_email",
          "type": "string"
        },
        {
          "internalType": "string",
          "name": "_shippingAddres",
          "type": "string"
        }
      ],
      "name": "order",
      "outputs": [],
      "stateMutability": "payable",
      "type": "function",
      "payable": true
    }
  ],
  "bytecode": "0x608060405234801561001057600080fd5b50336000806101000a81548173ffffffffffffffffffffffffffffffffffffffff021916908373ffffffffffffffffffffffffffffffffffffffff16021790555060646001819055506107b9806100686000396000f3fe6080604052600436106100345760003560e01c80634e329edf1461003957806359bf5d3914610055578063893d20e814610080575b600080fd5b610053600480360381019061004e91906103bb565b6100ab565b005b34801561006157600080fd5b5061006a61022e565b60405161007791906104ab565b60405180910390f35b34801561008c57600080fd5b50610095610238565b6040516100a29190610507565b60405180910390f35b6000339050670429d069189e00003410156100fb576040517f08c379a00000000000000000000000000000000000000000000000000000000081526004016100f29061057f565b60405180910390fd5b60008060009054906101000a900473ffffffffffffffffffffffffffffffffffffffff1673ffffffffffffffffffffffffffffffffffffffff16670429d069189e000060405161014a906105d0565b60006040518083038185875af1925050503d8060008114610187576040519150601f19603f3d011682016040523d82523d6000602084013e61018c565b606091505b505090508061019a57600080fd5b60018060008282546101ac9190610614565b925050819055507fc4bd154ebe12eed0a4dc26578b90cf77311fa9c4535f6fbb14c0c3158f853c4e6040518060a001604052808881526020018781526020018681526020018581526020018473ffffffffffffffffffffffffffffffffffffffff1681525060405161021e9190610761565b60405180910390a1505050505050565b6000600154905090565b60008060009054906101000a900473ffffffffffffffffffffffffffffffffffffffff16905090565b6000604051905090565b600080fd5b600080fd5b600080fd5b600080fd5b6000601f19601f8301169050919050565b7f4e487b7100000000000000000000000000000000000000000000000000000000600052604160045260246000fd5b6102c88261027f565b810181811067ffffffffffffffff821117156102e7576102e6610290565b5b80604052505050565b60006102fa610261565b905061030682826102bf565b919050565b600067ffffffffffffffff82111561032657610325610290565b5b61032f8261027f565b9050602081019050919050565b82818337600083830152505050565b600061035e6103598461030b565b6102f0565b90508281526020810184848401111561037a5761037961027a565b5b61038584828561033c565b509392505050565b600082601f8301126103a2576103a1610275565b5b81356103b284826020860161034b565b91505092915050565b600080600080608085870312156103d5576103d461026b565b5b600085013567ffffffffffffffff8111156103f3576103f2610270565b5b6103ff8782880161038d565b945050602085013567ffffffffffffffff8111156104205761041f610270565b5b61042c8782880161038d565b935050604085013567ffffffffffffffff81111561044d5761044c610270565b5b6104598782880161038d565b925050606085013567ffffffffffffffff81111561047a57610479610270565b5b6104868782880161038d565b91505092959194509250565b6000819050919050565b6104a581610492565b82525050565b60006020820190506104c0600083018461049c565b92915050565b600073ffffffffffffffffffffffffffffffffffffffff82169050919050565b60006104f1826104c6565b9050919050565b610501816104e6565b82525050565b600060208201905061051c60008301846104f8565b92915050565b600082825260208201905092915050565b7f4e6f7420656e6f7567682065746865722073656e740000000000000000000000600082015250565b6000610569601583610522565b915061057482610533565b602082019050919050565b600060208201905081810360008301526105988161055c565b9050919050565b600081905092915050565b50565b60006105ba60008361059f565b91506105c5826105aa565b600082019050919050565b60006105db826105ad565b9150819050919050565b7f4e487b7100000000000000000000000000000000000000000000000000000000600052601160045260246000fd5b600061061f82610492565b915061062a83610492565b9250828203905081811115610642576106416105e5565b5b92915050565b600081519050919050565b600082825260208201905092915050565b60005b83811015610682578082015181840152602081019050610667565b60008484015250505050565b600061069982610648565b6106a38185610653565b93506106b3818560208601610664565b6106bc8161027f565b840191505092915050565b6106d0816104e6565b82525050565b600060a08301600083015184820360008601526106f3828261068e565b9150506020830151848203602086015261070d828261068e565b91505060408301518482036040860152610727828261068e565b91505060608301518482036060860152610741828261068e565b915050608083015161075660808601826106c7565b508091505092915050565b6000602082019050818103600083015261077b81846106d6565b90509291505056fea2646970667358221220591631d2f8041777ca428e53857903e9045381e8f887ea683692b90dfe7aa34964736f6c63430008100033",
  "immutableReferences": {},
  "source": "//SPDX-License-Identifier: MIT\r\npragma solidity >=0.7.0 <0.9.0;\r\n\r\ncontract Projekat{\r\n    address payable private owner;\r\n    uint256 private reserve;\r\n\r\n    struct Data{\r\n        string name;\r\n        string lastName;\r\n        string email;\r\n        string shippingAddres;\r\n        address buyer;\r\n    }\r\n\r\n    event Ordered(\r\n        Data data\r\n    );\r\n\r\n    constructor(){\r\n        owner = payable(msg.sender);\r\n        reserve = 100;\r\n    }\r\n\r\n    function getReserve() public view returns(uint256){\r\n        return reserve;\r\n    }\r\n\r\n    function getOwner() public view returns(address){\r\n        return owner;\r\n    }\r\n\r\n    function order(string memory _name, string memory _lastName, string memory _email, string memory _shippingAddres) public payable{\r\n        address _buyer = msg.sender;\r\n        require(msg.value >= 0.3 ether, \"Not enough ether sent\");\r\n\r\n        (bool sent,) = owner.call{value: 0.3 ether}(\"\");\r\n        require(sent);\r\n\r\n        reserve -= 1;\r\n        emit Ordered(Data(\r\n            _name,\r\n            _lastName,\r\n            _email,\r\n            _shippingAddres,\r\n            _buyer\r\n        ));\r\n    }\r\n\r\n}",
  "sourcePath": "C:\\Users\\nikol\\blockchainLearning\\projekat_epos\\laptop_store_sc\\contracts\\Contract.sol",
  "compiler": {
    "name": "solc",
    "version": "0.8.16+commit.07a7930e.Emscripten.clang"
  },
  "schemaVersion": "3.4.8",
  "updatedAt": "2022-08-17T15:24:15.650Z",
  "networkType": "ethereum",
  "devdoc": {
    "kind": "dev",
    "methods": {},
    "version": 1
  },
  "userdoc": {
    "kind": "user",
    "methods": {},
    "version": 1
  }
}